{
  "contractName": "Purchase",
  "abi": [
    {
      "inputs": [],
      "payable": true,
      "stateMutability": "payable",
      "type": "constructor"
    },
    {
      "constant": true,
      "inputs": [],
      "name": "buyer",
      "outputs": [
        {
          "internalType": "address payable",
          "name": "",
          "type": "address"
        }
      ],
      "payable": false,
      "stateMutability": "view",
      "type": "function"
    },
    {
      "constant": true,
      "inputs": [],
      "name": "seller",
      "outputs": [
        {
          "internalType": "address payable",
          "name": "",
          "type": "address"
        }
      ],
      "payable": false,
      "stateMutability": "view",
      "type": "function"
    },
    {
      "constant": true,
      "inputs": [],
      "name": "state",
      "outputs": [
        {
          "internalType": "enum Purchase.State",
          "name": "",
          "type": "uint8"
        }
      ],
      "payable": false,
      "stateMutability": "view",
      "type": "function"
    },
    {
      "constant": true,
      "inputs": [],
      "name": "value",
      "outputs": [
        {
          "internalType": "uint256",
          "name": "",
          "type": "uint256"
        }
      ],
      "payable": false,
      "stateMutability": "view",
      "type": "function"
    },
    {
      "constant": false,
      "inputs": [],
      "name": "confirmPurchase",
      "outputs": [],
      "payable": true,
      "stateMutability": "payable",
      "type": "function"
    },
    {
      "constant": false,
      "inputs": [],
      "name": "confirmReceived",
      "outputs": [],
      "payable": false,
      "stateMutability": "nonpayable",
      "type": "function"
    },
    {
      "constant": false,
      "inputs": [],
      "name": "cancel",
      "outputs": [],
      "payable": false,
      "stateMutability": "nonpayable",
      "type": "function"
    }
  ],
  "bytecode": "0x608060405233600160006101000a81548173ffffffffffffffffffffffffffffffffffffffff021916908373ffffffffffffffffffffffffffffffffffffffff1602179055506002348161004f57fe5b0460008190555034600054600202146100d0576040517f08c379a00000000000000000000000000000000000000000000000000000000081526004018080602001828103825260158152602001807f56616c75652068617320746f206265206576656e2e000000000000000000000081525060200191505060405180910390fd5b610729806100df6000396000f3fe6080604052600436106100705760003560e01c806373fac6f01161004e57806373fac6f01461014e578063c19d93fb14610165578063d69606971461019e578063ea8a1af0146101a857610070565b806308551a53146100755780633fa4f245146100cc5780637150d8ae146100f7575b600080fd5b34801561008157600080fd5b5061008a6101bf565b604051808273ffffffffffffffffffffffffffffffffffffffff1673ffffffffffffffffffffffffffffffffffffffff16815260200191505060405180910390f35b3480156100d857600080fd5b506100e16101e5565b6040518082815260200191505060405180910390f35b34801561010357600080fd5b5061010c6101eb565b604051808273ffffffffffffffffffffffffffffffffffffffff1673ffffffffffffffffffffffffffffffffffffffff16815260200191505060405180910390f35b34801561015a57600080fd5b50610163610211565b005b34801561017157600080fd5b5061017a61044d565b6040518082600281111561018a57fe5b60ff16815260200191505060405180910390f35b6101a6610460565b005b3480156101b457600080fd5b506101bd6104da565b005b600160009054906101000a900473ffffffffffffffffffffffffffffffffffffffff1681565b60005481565b600260009054906101000a900473ffffffffffffffffffffffffffffffffffffffff1681565b600260009054906101000a900473ffffffffffffffffffffffffffffffffffffffff1673ffffffffffffffffffffffffffffffffffffffff163373ffffffffffffffffffffffffffffffffffffffff16146102b7576040517f08c379a00000000000000000000000000000000000000000000000000000000081526004018080602001828103825260248152602001806106ac6024913960400191505060405180910390fd5b60018060028111156102c557fe5b600260149054906101000a900460ff1660028111156102e057fe5b14610353576040517f08c379a000000000000000000000000000000000000000000000000000000000815260040180806020018281038252600d8152602001807f496e76616c69642073746174650000000000000000000000000000000000000081525060200191505060405180910390fd5b60028060146101000a81548160ff0219169083600281111561037157fe5b0217905550600260009054906101000a900473ffffffffffffffffffffffffffffffffffffffff1673ffffffffffffffffffffffffffffffffffffffff166108fc6000549081150290604051600060405180830381858888f193505050501580156103e0573d6000803e3d6000fd5b50600160009054906101000a900473ffffffffffffffffffffffffffffffffffffffff1673ffffffffffffffffffffffffffffffffffffffff166108fc479081150290604051600060405180830381858888f19350505050158015610449573d6000803e3d6000fd5b5050565b600260149054906101000a900460ff1681565b60005460020234148061047257600080fd5b33600260006101000a81548173ffffffffffffffffffffffffffffffffffffffff021916908373ffffffffffffffffffffffffffffffffffffffff1602179055506001600260146101000a81548160ff021916908360028111156104d257fe5b021790555050565b600160009054906101000a900473ffffffffffffffffffffffffffffffffffffffff1673ffffffffffffffffffffffffffffffffffffffff163373ffffffffffffffffffffffffffffffffffffffff1614610580576040517f08c379a00000000000000000000000000000000000000000000000000000000081526004018080602001828103825260258152602001806106d06025913960400191505060405180910390fd5b600080600281111561058e57fe5b600260149054906101000a900460ff1660028111156105a957fe5b1461061c576040517f08c379a000000000000000000000000000000000000000000000000000000000815260040180806020018281038252600d8152602001807f496e76616c69642073746174650000000000000000000000000000000000000081525060200191505060405180910390fd5b60028060146101000a81548160ff0219169083600281111561063a57fe5b0217905550600160009054906101000a900473ffffffffffffffffffffffffffffffffffffffff1673ffffffffffffffffffffffffffffffffffffffff166108fc479081150290604051600060405180830381858888f193505050501580156106a7573d6000803e3d6000fd5b505056fe4f6e6c792062757965722063616e206578656375746520746869732066756e6374696f6e4f6e6c792073656c6c65722063616e206578656375746520746869732066756e6374696f6ea265627a7a7231582048d1087ceeec49204e5d63e83bdab58d3a9fd1ee43ec931a20ecf0c6982b976764736f6c63430005100032",
  "source": "pragma solidity >=0.4.22 <0.7.0;\n\ncontract Purchase{\n    uint public value;\n    address payable public seller;\n    address payable public buyer;\n    enum State { Created, Locked, Cancel }\n    \n    State public state;\n    \n    constructor() public payable{\n        seller = msg.sender;\n        value = msg.value / 2;\n        require((2 * value) == msg.value , \"Value has to be even.\");\n    }\n    \n    modifier onlySeller(){\n        require(\n            msg.sender == seller,\n            \"Only seller can execute this function\"\n            );\n            _;\n    }\n    \n     modifier onlyBuyer(){\n        require(\n            msg.sender == buyer,\n            \"Only buyer can execute this function\"\n            );\n            _;\n    }\n    \n    modifier condition(bool _condition){\n        require(_condition);\n        _;\n    }\n    \n    modifier inState(State _state){\n        require(\n            state == _state,\n            \"Invalid state\"\n            );\n            _;\n    }\n    \n    function confirmPurchase() public condition(msg.value == (2*value)) payable{\n        buyer = msg.sender;\n        state = State.Locked;\n    }\n    \n    function confirmReceived() public onlyBuyer inState(State.Locked){\n        state = State.Cancel;\n        buyer.transfer(value);\n        seller.transfer(address(this).balance);\n    }\n    \n    function cancel()public onlySeller inState(State.Created){\n        state= State.Cancel;\n        seller.transfer(address(this).balance);\n    }\n    \n}",
  "sourcePath": "/Users/vigneshkb/blockchain/purchase/contracts/Purchase.sol",
  "compiler": {
    "name": "solc",
    "version": "0.5.16+commit.9c3226ce.Emscripten.clang"
  },
  "schemaVersion": "3.0.23",
  "updatedAt": "2020-04-24T16:27:14.622Z",
  "networkType": "ethereum",
  "devdoc": {
    "methods": {}
  },
  "userdoc": {
    "methods": {}
  }
}